:020000040800F2
:10000000002800201D150008891400088F1400081E
:10001000951400089B140008A114000800000000BB
:10002000000000000000000000000000A71400080D
:10003000B314000800000000BF140008CB1400082F
:1000400065150008651500086515000865150008A8
:100050006515000865150008651500086515000898
:100060006515000865150008651500086515000888
:100070006515000865150008651500086515000878
:100080006515000865150008651500086515000868
:100090006515000865150008651500086515000858
:1000A0006515000865150008651500086515000848
:1000B000D914000865150008000000006515000847
:1000C000651500080000000000000000651500082C
:1000D000000000006515000865150008000000001C
:1000E000651500086515000865150008000000008A
:1000F0000000000000000000000000000000000000
:0C01000000000000000000005FF808F1A3
:10010C0010B5054C237833B9044B13B10448AFF345
:10011C0000800123237010BD30000020000000007F
:10012C00BC2B000808B5034B1BB103490348AFF3C4
:10013C00008008BD0000000034000020BC2B00082B
:10014C0080B483B000AF7860074B1B687A6892FB71
:10015C00F3F3064A1360064B00221A6000BF0C37FB
:10016C00BD4680BC704700BF00000020500000203E
:10017C004C00002080B483B000AF7860074B1B6844
:10018C007A6892FBF3F3064A1360064B00221A605E
:10019C0000BF0C37BD4680BC704700BF000000207C
:1001AC00580000205400002080B400AF114B1B6895
:1001BC00002B0BDD0F4B1B68013B0E4A13600D4BE4
:1001CC001B68002B02D10C4B01221A600B4B1B68D5
:1001DC00002B0BDD094B1B68013B084A1360074BD6
:1001EC001B68002B02D1064B01221A6000BFBD46D2
:1001FC0080BC7047500000204C00002058000020AC
:10020C005400002080B582B000AF78607B68092B69
:10021C0000F2808101A252F823F000BF51020008C5
:10022C0099020008E1020008290300087103000884
:10023C00B9030008010400084904000891040008EF
:10024C00D904000800220121C64801F088FC0022D4
:10025C000221C44801F083FC00220421C14801F0B2
:10026C007EFC00220821BF4801F079FC00221021FD
:10027C00BC4801F074FC00222021BA4801F06FFC4C
:10028C0001224021B74801F06AFC67E101220121FB
:10029C00B44801F064FC00220221B24801F05FFC7A
:1002AC0000220421AF4801F05AFC01220821AD487C
:1002BC0001F055FC01221021AA4801F050FC01224A
:1002CC002021A84801F04BFC01224021A54801F057
:1002DC0046FC43E100220121A24801F040FC00222F
:1002EC000221A04801F03BFC012204219D4801F0B1
:1002FC0036FC002208219B4801F031FC0022102121
:10030C00984801F02CFC01222021964801F027FC92
:10031C0000224021934801F022FC1FE10022012120
:10032C00904801F01CFC002202218E4801F017FCC1
:10033C00002204218B4801F012FC0022082189487C
:10034C0001F00DFC01221021864801F008FC01226D
:10035C002021844801F003FC00224021814801F057
:10036C00FEFBFBE0012201217E4801F0F8FB00229C
:10037C0002217C4801F0F3FB00220421794801F0B2
:10038C00EEFB01220821774801F0E9FB0122102144
:10039C00744801F0E4FB00222021724801F0DFFBDD
:1003AC00002240216F4801F0DAFBD7E00022012146
:1003BC006C4801F0D4FB012202216A4801F0CFFB0A
:1003CC0000220421674801F0CAFB0022082165487D
:1003DC0001F0C5FB01221021624801F0C0FB002294
:1003EC002021604801F0BBFB002240215D4801F058
:1003FC00B6FBB3E0002201215A4801F0B0FB012208
:10040C000221584801F0ABFB00220421554801F0B1
:10041C00A6FB00220821534801F0A1FB0022102169
:10042C00504801F09CFB002220214E4801F097FB24
:10043C00002240214B4801F092FB8FE00022012169
:10044C00484801F08CFB00220221464801F087FB52
:10045C0000220421434801F082FB0122082141487B
:10046C0001F07DFB012210213E4801F078FB0122B6
:10047C0020213C4801F073FB01224021394801F056
:10048C006EFB6BE000220121364801F068FB002274
:10049C000221344801F063FB00220421314801F0B1
:1004AC005EFB002208212F4801F059FB002210218D
:1004BC002C4801F054FB002220212A4801F04FFB6C
:1004CC0000224021274801F04AFB47E0002201218D
:1004DC00244801F044FB00220221224801F03FFB9A
:1004EC00002204211F4801F03AFB002208211D487C
:1004FC0001F035FB012210211A4801F030FB0022DB
:10050C002021184801F02BFB00224021154801F056
:10051C0026FB23E001220121124801F020FB0122DD
:10052C000221104801F01BFB012204210D4801F0AF
:10053C0016FB012208210B4801F011FB01221021AE
:10054C00084801F00CFB01222021064801F007FBB2
:10055C0001224021034801F002FB00BF00BF083715
:10056C00BD4680BD000C014080B582B000AF786004
:10057C007B68092B00F2BE8101A252F823F000BF68
:10058C00B5050008090600085D060008B10600085C
:10059C000507000859070008AD0700080108000806
:1005AC0055080008A908000800228021D04801F055
:1005BC00D6FA00224FF48071CD4801F0D0FA002217
:1005CC004FF40071CA4801F0CAFA00224FF480615E
:1005DC00C74801F0C4FA00224FF40061C44801F08E
:1005EC00BEFA00224FF48051C14801F0B8FA012242
:1005FC004FF40051BE4801F0B2FAA5E1012280216E
:10060C00BB4801F0ACFA00224FF48071B84801F0FD
:10061C00A6FA00224FF40071B54801F0A0FA0122AD
:10062C004FF48061B24801F09AFA01224FF4006154
:10063C00AF4801F094FA01224FF48051AC4801F01C
:10064C008EFA01224FF40051A94801F088FA7BE19F
:10065C0000228021A64801F082FA00224FF480711A
:10066C00A34801F07CFA01224FF40071A04801F07C
:10067C0076FA00224FF480619D4801F070FA002256
:10068C004FF400619A4801F06AFA01224FF480514C
:10069C00974801F064FA00224FF40051944801F09D
:1006AC005EFA51E100228021914801F058FA0022B3
:1006BC004FF480718E4801F052FA00224FF4007111
:1006CC008B4801F04CFA00224FF48061884801F00D
:1006DC0046FA01224FF40061854801F040FA0122EC
:1006EC004FF48051824801F03AFA00224FF4005145
:1006FC007F4801F034FA27E1012280217C4801F087
:10070C002EFA00224FF48071794801F028FA002269
:10071C004FF40071764801F022FA01224FF4806107
:10072C00734801F01CFA01224FF40061704801F08B
:10073C0016FA00224FF480516D4801F010FA002295
:10074C004FF400516A4801F00AFAFDE000228021C2
:10075C00674801F004FA01224FF48071644801F0FB
:10076C00FEF900224FF40071614801F0F8F9002203
:10077C004FF480615E4801F0F2F901224FF4006100
:10078C005B4801F0ECF900224FF48051584801F01D
:10079C00E6F900224FF40051554801F0E0F9D3E09E
:1007AC0000228021524801F0DAF901224FF48071C5
:1007BC004F4801F0D4F900224FF400714C4801F07D
:1007CC00CEF900224FF48061494801F0C8F90022AB
:1007DC004FF40061464801F0C2F900224FF48051F9
:1007EC00434801F0BCF900224FF40051404801F09D
:1007FC00B6F9A9E0002280213D4801F0B0F90022B1
:10080C004FF480713A4801F0AAF900224FF40071BC
:10081C00374801F0A4F901224FF48061344801F00B
:10082C009EF901224FF40061314801F098F9012240
:10083C004FF480512E4801F092F901224FF40051EF
:10084C002B4801F08CF97FE000228021284801F030
:10085C0086F900224FF48071254801F080F90022BE
:10086C004FF40071224801F07AF900224FF48061B4
:10087C001F4801F074F900224FF400611C4801F08C
:10088C006EF900224FF48051194801F068F90022EA
:10089C004FF40051164801F062F955E00022802116
:1008AC00134801F05CF900224FF48071104801F0FC
:1008BC0056F900224FF400710D4801F050F9002256
:1008CC004FF480610A4801F04AF901224FF40061AB
:1008DC00074801F044F900224FF48051044801F01C
:1008EC003EF900224FF40051014801F038F92BE099
:1008FC00000C014001228021154801F030F9012241
:10090C004FF48071124801F02AF901224FF4007162
:10091C000F4801F024F901224FF480610C4801F0DA
:10092C001EF901224FF40061094801F018F9012267
:10093C004FF48051064801F012F901224FF4005196
:10094C00034801F00CF900BF00BF0837BD4680BD5D
:10095C00000C014080B500AF214B1B78002B02D05E
:10096C00012B2DD039E0002000F0AEF90346002B0E
:10097C0030D01C4B01221A601B4B01221A601B4BFE
:10098C0001221A601A4B1B680133194A1360184B69
:10099C001B68042B10DD164B01221A60154B00222C
:1009AC001A60154B02221A60144B1B68144A136010
:1009BC00144B1B68144A1360094B01221A7009E08E
:1009CC00002000F081F90346002B05D1044B0022D6
:1009DC001A7001E000BF00E000BF00BF80BD00BF87
:1009EC00680000205C0000204C0000205400002017
:1009FC00600000206400002018000020040000208B
:100A0C001C0000200C0000202000002080B500AF4E
:100A1C002F4B1B78022B30D0022B4FDC002B02D03B
:100A2C00012B16D04AE0012000F04EF90346002BB2
:100A3C0046D0284B1B680133264A1360254B1B6894
:100A4C00632B02DD234B01221A60214B01221A7009
:100A5C0036E0012000F038F90346002B03D11C4B83
:100A6C0000221A702EE0012000F048F90346002BFA
:100A7C0028D0174B02221A7024E0012000F024F930
:100A8C000346002B03D1124B00221A701CE0124BB0
:100A9C005B78012B18D10F4B1B6801330D4A136087
:100AAC000C4B1B68632B02DD0A4B01221A600A4BAC
:100ABC0000225A70064B02221A7005E000BF04E0B7
:100ACC0000BF02E000BF00E000BF00BF80BD00BF60
:100ADC00690000205C0000209000002080B500AF71
:100AEC00204B1B78002B02D0012B2BD037E002209F
:100AFC0000F0EAF80346002B2ED01B4B1B68013B81
:100B0C00032B1AD801A252F823F000BF470B0008A0
:100B1C00290B0008330B00083D0B0008134B1B6816
:100B2C00134A13600AE0114B1B68124A136005E06C
:100B3C000E4B1B68104A136000E000BF094B0122EA
:100B4C001A7009E0022000F0BFF80346002B05D113
:100B5C00044B00221A7001E000BF00E000BF00BF90
:100B6C0080BD00BF6A000020600000205C000020F7
:100B7C0004000020080000200C00002080B582B08A
:100B8C0000AF0023FB7183E0FA79FB794549895C5E
:100B9C00454AD1544FF40061444800F0C9FF034664
:100BAC001A46404B1A704FF48051404800F0C0FF79
:100BBC0003461A463B4B5A704FF400513B4800F029
:100BCC00B7FF03461A46374B9A70FB79354AD25C0D
:100BDC00FB793549CB5C9A4205D1FA79FB793149DD
:100BEC00895C334AD154FB79314AD35C002B3AD11E
:100BFC00FB79304A32F8133019462F4B1B684FF4EF
:100C0C007A7292FBF3F3994209DAFB79294A32F8AA
:100C1C001320013291B2274A22F8131035E0FB79E8
:100C2C00264A0121D154FB79254A32F8132001328E
:100C3C0091B2234A22F81310FB79214A32F813306F
:100C4C0019461D4B1B684FF4FA7292FBF3F3994251
:100C5C001BDBFB791B4A0121D154FB79184A00217B
:100C6C0022F8131011E0FB79124A002122F813101C
:100C7C00FB79134A002122F81310FB790F4A00214B
:100C8C00D154FB790F4A0021D154FB790133FB710C
:100C9C00FB79022B7FF678AF00BF00BF0837BD464B
:100CAC0080BD00BF700000207400002000080140CF
:100CBC006C0000207C000020000000207800002048
:100CCC00840000209000002080B483B000AF034665
:100CDC00FB71FB79022B01D9002307E0FB79064A53
:100CEC00D35C002B0CBF01230023DBB218460C375E
:100CFC00BD4680BC704700BF6C00002080B483B040
:100D0C0000AF0346FB71002318460C37BD4680BC70
:100D1C007047000080B500AF00F020FC00F032F806
:100D2C0000F0B8F800F06AF8134801F081FB0A20D3
:100D3C00FFF706FA0A20FFF71DFAFFF70BFEFFF785
:100D4C0065FEFFF7CBFE00F001FA0C4B1B68012B84
:100D5C0005D100F015FA4FF47A70FFF7F1F9084B52
:100D6C001B68012BE9D100F0FFF800F06DF9FA20B7
:100D7C00FFF700FAE1E700BF940000204C000020D0
:100D8C005400002080B590B000AF07F11803282262
:100D9C000021184601F004FF3B1D00221A605A6026
:100DAC009A60DA601A610223BB610123BB621023D3
:100DBC00FB6200237B6307F11803184600F000FF69
:100DCC000346002B01D000F0C9F80F237B600023F1
:100DDC00BB600023FB6000233B6100237B613B1D58
:100DEC000021184601F06CF90346002B01D000F0ED
:100DFC00B5F800BF4037BD4680BD000080B586B059
:100E0C0000AF07F1080300221A605A609A60DA609A
:100E1C003B4600221A605A601D4B4FF080421A600C
:100E2C001B4B41F63F725A60194B00229A60184BCB
:100E3C000922DA60164B00221A61154B00229A61C6
:100E4C00134801F0A5FA0346002B01D000F086F8F8
:100E5C004FF48053BB6007F1080319460C4801F0AE
:100E6C003BFC0346002B01D000F078F800233B60DC
:100E7C0000237B603B461946054801F003FE034600
:100E8C00002B01D000F06AF800BF1837BD4680BDBA
:100E9C009400002080B586B000AF07F10803002253
:100EAC001A605A609A60DA60294B9B69284A43F0B1
:100EBC0004039361264B9B6903F004037B607B68FE
:100ECC00234B9B69224A43F008039361204B9B6997
:100EDC0003F008033B603B68002240F2FE711D48A2
:100EEC0000F03DFE002243F6FF711B4800F037FE78
:100EFC0040F2FE73BB600123FB6000233B610223C5
:100F0C007B6107F108031946124800F097FC43F681
:100F1C00FF73BB600123FB6000233B6102237B61F9
:100F2C0007F1080319460C4800F088FC4FF4605395
:100F3C00BB600023FB6000233B6107F108031946EB
:100F4C00044800F07BFC00BF1837BD4680BD00BFD5
:100F5C000010024000080140000C014080B400AFBA
:100F6C0072B600BFFEE7000080B500AF344B1B68C3
:100F7C00013B032B61D801A252F823F04710000863
:100F8C00990F0008D30F00080D100008012204214E
:100F9C002C4800F0E4FD012208212A4800F0DFFD76
:100FAC0001222021274800F0DAFD012240212548AA
:100FBC0000F0D5FD0221234800F0E9FD1021214865
:100FCC0000F0E5FD3AE0012202211E4800F0C7FDC9
:100FDC00012208211B4800F0C2FD012210211948F2
:100FEC0000F0BDFD01224021164800F0B8FD04219F
:100FFC00144800F0CCFD2021124800F0C8FD1DE083
:10100C00012204210F4800F0AAFD012202210D4803
:10101C0000F0A5FD012220210A4800F0A0FD0122CC
:10102C001021084800F09BFD0821064800F0AFFD98
:10103C004021044800F0ABFD00E000BF00BF80BDC4
:10104C00600000200008014080B500AF3A4B1B68DF
:10105C00002B02D0012B31D06BE0002280213748CD
:10106C0000F07DFD01224FF48071344800F077FDD3
:10107C0000224FF40071314800F071FD01224FF451
:10108C0080612E4800F06BFD2D4B1B682D4A82FBB6
:10109C0003129210DB17D31A1846FFF7B3F82A4B3A
:1010AC001B68284A82FB03129210DB17D31A1846CE
:1010BC00FFF75AFA204B01221A603AE001228021F4
:1010CC001E4800F04CFD00224FF480711B4800F0CC
:1010DC0046FD01224FF40071184800F040FD00223B
:1010EC004FF48061154800F03AFD154B1A68154B0A
:1010FC0083FB02139910D317C91A0B469B000B44A0
:10110C005B00D11A0846FFF77DF80F4B1A680D4BA0
:10111C0083FB02139910D317C91A0B469B000B447F
:10112C005B00D11A0846FFF71FFA034B00221A6026
:10113C0000BF00BF80BD00BF8C0000200008014034
:10114C0010000020676666661400002080B400AFB3
:10115C00074B1B68012B07DD054B1B68054A136009
:10116C00054B1B68054A136000BFBD4680BC704729
:10117C0060000020100000205C0000201400002003
:10118C0080B500AF874B1B68012B40F0008100221B
:10119C008021854800F0E3FC00224FF480718248E6
:1011AC0000F0DDFC814B1B68022B4ED0022B70DC57
:1011BC00002B02D0012B24D06BE0002202217A48B4
:1011CC0000F0CDFC01220421774800F0C8FC01227C
:1011DC000821754800F0C3FC754B1B68754A1360F9
:1011EC00734B1B68013B724A1360714B1B68002BDD
:1011FC0051DC6E4B02221A606F4B1B686C4A1360F9
:10120C0049E001220221684800F0A9FC00220421D7
:10121C00654800F0A4FC01220821634800F09FFC03
:10122C00634B1B68634A1360614B1B68013B604A4C
:10123C0013605F4B1B68002B2FDC5C4B00221A6089
:10124C005E4B1B685A4A136027E001220221564864
:10125C0000F085FC01220421534800F080FC0022A0
:10126C000821514800F07BFC514B1B68514A13601C
:10127C004F4B1B68013B4E4A13604D4B1B68002BB8
:10128C000DDC4A4B01221A604D4B1B68484A136017
:10129C0005E000BF04E000BF02E000BF00E000BFBB
:1012AC00484B1B68022B06D0022B72DC002B4AD059
:1012BC00012B24D06DE0012210213B4800F04FFCA3
:1012CC0001222021384800F04AFC002240213648F7
:1012DC0000F045FC3C4B1B683C4A13603A4B1B68C6
:1012EC00013B394A1360384B1B68002B53DC354BE0
:1012FC0001221A60324B1B68334A13604BE0012207
:10130C001021294800F02BFC00222021264800F057
:10131C0026FC01224021244800F021FC2A4B1B68AA
:10132C002A4A1360284B1B68013B274A1360264B43
:10133C001B68002B31DC234B00221A601F4B1B68EF
:10134C00214A136029E000221021174800F007FC05
:10135C0001222021144800F002FC012240211248F5
:10136C0000F0FDFB184B1B68184A1360164B1B68EA
:10137C00013B154A1360144B1B68002B0FDC114BFF
:10138C0002221A600C4B1B680F4A136007E000BF67
:10139C0006E000BF04E000BF02E000BF00E000BFB9
:1013AC0000BF80BD600000200008014064000020E8
:1013BC001C000020100000200C0000200400002065
:1013CC00080000201800002020000020140000203D
:1013DC0080B485B000AF154B9B69144A43F00103F0
:1013EC009361124B9B6903F00103BB60BB680F4B0D
:1013FC00DB690E4A43F08053D3610C4BDB6903F07D
:10140C0080537B607B680A4B5B68FB60FB6823F056
:10141C00E063FB60FB6843F08063FB60044AFB689D
:10142C00536000BF1437BD4680BC704700100240AB
:10143C000000014080B584B000AF78607B681B6809
:10144C00B3F1804F13D10C4BDB690B4A43F0010312
:10145C00D361094BDB6903F00103FB60FB680022DD
:10146C0000211C2000F0B3F91C2000F0CCF900BFC7
:10147C001037BD4680BD00BF0010024080B400AFE5
:10148C00FEE780B400AFFEE780B400AFFEE780B4A7
:10149C0000AFFEE780B400AFFEE780B400AF00BF42
:1014AC00BD4680BC704780B400AF00BFBD4680BC59
:1014BC00704780B400AF00BFBD4680BC704780B59C
:1014CC0000AF00F091F800BF80BD000080B500AF08
:1014DC00024800F0F9FF00BF80BD00BF940000205F
:1014EC0080B400AF00BFBD4680BC704780B582B0F1
:1014FC0000AF78607B681B68B3F1804F03D1FFF7B6
:10150C003DFBFEF751FE00BF0837BD4680BD000015
:10151C000C480D490D4A002302E0D458C450043342
:10152C00C4188C42F9D30A4A0A4C002301E0136018
:10153C000432A242FBD3FFF7D3FF01F00DFBFFF700
:10154C00E9FB70470000002030000020FC2B000855
:10155C0030000020E0000020FEE7000080B500AF66
:10156C00084B1B68074A43F010031360032000F07C
:10157C0023F90F2000F008F8FFF72AFF0023184684
:10158C0080BD00BF0020024080B582B000AF786003
:10159C00124B1A68124B1B7819464FF47A73B3FB33
:1015AC00F1F3B2FBF3F3184600F03BF90346002BC2
:1015BC0001D001230EE07B680F2B0AD8002279683A
:1015CC004FF0FF3000F003F9064A7B6813600023EC
:1015DC0000E0012318460837BD4680BD24000020DA
:1015EC002C0000202800002080B400AF054B1B7895
:1015FC001A46054B1B681344034A136000BFBD46D3
:10160C0080BC70472C000020DC00002080B400AFB0
:10161C00024B1B681846BD4680BC7047DC0000209E
:10162C0080B485B000AF78607B6803F00703FB6083
:10163C000C4BDB68BB60BA684FF6FF031340BB6012
:10164C00FB681A02BB68134343F0BF6343F40033D7
:10165C00BB60044ABB68D36000BF1437BD4680BC76
:10166C00704700BF00ED00E080B400AF044BDB68B6
:10167C001B0A03F007031846BD4680BC704700BF29
:10168C0000ED00E080B483B000AF0346FB7197F926
:10169C000730002B0BDBFB7903F01F02064997F98F
:1016AC0007305B09012000FA02F241F8232000BF49
:1016BC000C37BD4680BC704700E100E080B483B0BD
:1016CC0000AF03463960FB7197F90730002B0ADB3A
:1016DC003B68DAB20C4997F907301201D2B20B44CD
:1016EC0083F800230AE03B68DAB20849FB7903F07F
:1016FC000F03043B1201D2B20B441A7600BF0C3715
:10170C00BD4680BC704700BF00E100E000ED00E08A
:10171C0080B489B000AFF860B9607A60FB6803F000
:10172C000703FB61FB69C3F10703042B28BF0423E8
:10173C00BB61FB690433062B02D9FB69033B00E058
:10174C0000237B614FF0FF32BB6902FA03F3DA43EB
:10175C00BB681A407B699A404FF0FF317B6901FAF4
:10176C0003F3D9437B680B40134318462437BD461B
:10177C0080BC704780B582B000AF78607B68013B5D
:10178C00B3F1807F01D301230FE00A4A7B68013B50
:10179C0053600F214FF0FF30FFF790FF054B0022F5
:1017AC009A60044B07221A60002318460837BD467E
:1017BC0080BD00BF10E000E080B582B000AF786063
:1017CC007868FFF72DFF00BF0837BD4680BD80B598
:1017DC0086B000AF0346B9607A60FB7300237B616F
:1017EC00FFF742FF78617A68B9687869FFF790FF74
:1017FC00024697F90F3011461846FFF75FFF00BFFE
:10180C001837BD4680BD80B582B000AF0346FB7172
:10181C0097F907301846FFF735FF00BF0837BD466C
:10182C0080BD80B582B000AF78607868FFF7A2FF0A
:10183C00034618460837BD4680BD000080B48BB007
:10184C0000AF7860396000237B6200233B6248E183
:10185C0001227B6A02FA03F3FB613B681B68FA699D
:10186C001340BB61BA69FB699A4240F037813B680F
:10187C005B68A34A93425ED0A14A934275D8A14AB1
:10188C00934258D09F4A93426FD89F4A934252D06A
:10189C009D4A934269D89D4A93424CD09B4A9342AD
:1018AC0063D89B4A934246D0994A93425DD8122BF7
:1018BC002AD8122B59D801A252F823F04319000848
:1018CC001D1900082F190008711900087719000854
:1018DC00771900087719000877190008771900089C
:1018EC00771900087719000877190008771900088C
:1018FC00771900087719000877190008771900087C
:10190C002519000839190008824A934213D02CE09B
:10191C003B68DB683B6229E03B68DB6804333B6275
:10192C0024E03B68DB6808333B621FE03B68DB6804
:10193C000C333B621AE03B689B68002B02D10423FA
:10194C003B6213E03B689B68012B05D108233B628B
:10195C007B68FA691A6109E008233B627B68FA69C3
:10196C005A6103E000233B6200E000BFBB69FF2B20
:10197C0001D87B6801E07B6804337B61BB69FF2B7A
:10198C0002D87B6A9B0002E07B6A083B9B003B61B0
:10199C007B691A680F213B6901FA03F3DB431A4098
:1019AC00396A3B6901FA03F31A437B691A603B6895
:1019BC005B6803F08053002B00F09080564B9B69C2
:1019CC00554A43F001039361534B9B6903F00103A8
:1019DC00BB60BB68514A7B6A9B08023352F82330C8
:1019EC00FB607B6A03F003039B000F2202FA03F3F4
:1019FC00DB43FA681340FB607B68494A93420DD085
:101A0C007B68484A934207D07B68474A934201D18E
:101A1C00022304E0032302E0012300E000237A6A9E
:101A2C0002F0030292009340FA681343FB603B49B7
:101A3C007B6A9B080233FA6841F823203B685B6899
:101A4C0003F48033002B06D0384B1A683749BB6936
:101A5C0013430B6006E0354B1A68BB69DB43334913
:101A6C0013400B603B685B6803F40033002B06D01B
:101A7C002E4B5A682D49BB6913434B6006E02B4B28
:101A8C005A68BB69DB43294913404B603B685B6870
:101A9C0003F48013002B06D0244B9A682349BB69AE
:101AAC0013438B6006E0214B9A68BB69DB431F49EB
:101ABC0013408B603B685B6803F40013002B06D06B
:101ACC001A4BDA681949BB691343CB6006E0174B14
:101ADC00DA68BB69DB4315491340CB607B6A013381
:101AEC007B623B681A687B6A22FA03F3002B7FF453
:101AFC00AFAE00BF00BF2C37BD4680BC704700BFE7
:101B0C0000003210000031100000221000002110E3
:101B1C0000001210000011100010024000000140E3
:101B2C0000080140000C014000100140000401407D
:101B3C0080B485B000AF78600B467B807B689A6878
:101B4C007B881340002B02D00123FB7301E00023A0
:101B5C00FB73FB7B18461437BD4680BC704780B4C2
:101B6C0083B000AF78600B467B8013467B707B782C
:101B7C00002B03D07A887B681A6103E07B881A04F7
:101B8C007B681A6100BF0C37BD4680BC704780B4BF
:101B9C0085B000AF78600B467B807B68DB68FB60B0
:101BAC007A88FB6813401A04FB68D9437B880B4086
:101BBC001A437B681A6100BF1437BD4680BC70475E
:101BCC0080B586B000AF78607B68002B01D1012313
:101BDC006CE27B681B6803F00103002B00F087802C
:101BEC00924B5B6803F00C03042B0CD08F4B5B689F
:101BFC0003F00C03082B12D18C4B5B6803F480337D
:101C0C00B3F5803F0BD1894B1B6803F40033002BD9
:101C1C006CD07B685B68002B68D1012346E27B6843
:101C2C005B68B3F5803F06D1804B1B687F4A43F459
:101C3C00803313602EE07B685B68002B0CD17B4BF0
:101C4C001B687A4A23F480331360784B1B68774AFD
:101C5C0023F4802313601DE07B685B68B3F5A02F31
:101C6C000CD1724B1B68714A43F4802313606F4B89
:101C7C001B686E4A43F4803313600BE06B4B1B689C
:101C8C006A4A23F480331360684B1B68674A23F459
:101C9C00802313607B685B68002B13D0FFF7B6FCC6
:101CAC00386108E0FFF7B2FC02463B69D31A642B9B
:101CBC0001D90323FAE15D4B1B6803F40033002BBD
:101CCC00F0D014E0FFF7A2FC386108E0FFF79EFCAF
:101CDC0002463B69D31A642B01D90323E6E1534B2B
:101CEC001B6803F40033002BF0D100E000BF7B68CD
:101CFC001B6803F00203002B63D04C4B5B6803F0B2
:101D0C000C03002B0BD0494B5B6803F00C03082B26
:101D1C001CD1464B5B6803F48033002B16D1434B2C
:101D2C001B6803F00203002B05D07B681B69012B99
:101D3C0001D00123BAE13D4B1B6823F0F8027B680C
:101D4C005B69DB00394913430B603AE07B681B6924
:101D5C00002B20D0364B01221A60FFF757FC38615C
:101D6C0008E0FFF753FC02463B69D31A022B01D95A
:101D7C0003239BE12D4B1B6803F00203002BF0D0D7
:101D8C002A4B1B6823F0F8027B685B69DB00274950
:101D9C0013430B6015E0264B00221A60FFF736FC4C
:101DAC00386108E0FFF732FC02463B69D31A022B7C
:101DBC0001D903237AE11D4B1B6803F00203002BAE
:101DCC00F0D17B681B6803F00803002B3AD07B68CA
:101DDC009B69002B19D0174B01221A60FFF716FCD8
:101DEC00386108E0FFF712FC02463B69D31A022B5C
:101DFC0001D903235AE10D4B5B6A03F00203002B5C
:101E0C00F0D0012000F0A6FA1CE00A4B00221A6068
:101E1C00FFF7FCFB38610FE0FFF7F8FB02463B696C
:101E2C00D31A022B08D9032340E100BF0010024053
:101E3C0000004242800442429E4B5B6A03F0020364
:101E4C00002BE9D17B681B6803F00403002B00F026
:101E5C00A6800023FB75974BDB6903F08053002BA6
:101E6C000DD1944BDB69934A43F08053D361914B72
:101E7C00DB6903F08053BB60BB680123FB758E4BA1
:101E8C001B6803F48073002B18D18B4B1B688A4A98
:101E9C0043F480731360FFF7B9FB386108E0FFF778
:101EAC00B5FB02463B69D31A642B01D90323FDE031
:101EBC00814B1B6803F48073002BF0D07B68DB68CC
:101ECC00012B06D17B4B1B6A7A4A43F00103136248
:101EDC002DE07B68DB68002B0CD1764B1B6A754AB6
:101EEC0023F001031362734B1B6A724A23F0040341
:101EFC0013621CE07B68DB68052B0CD16D4B1B6AF5
:101F0C006C4A43F0040313626A4B1B6A694A43F040
:101F1C00010313620BE0674B1B6A664A23F0010353
:101F2C001362644B1B6A634A23F0040313627B68DD
:101F3C00DB68002B15D0FFF769FB38610AE0FFF76F
:101F4C0065FB02463B69D31A41F28832934201D9B0
:101F5C000323ABE0574B1B6A03F00203002BEED0BC
:101F6C0014E0FFF753FB38610AE0FFF74FFB024622
:101F7C003B69D31A41F28832934201D9032395E08D
:101F8C004C4B1B6A03F00203002BEED1FB7D012BA3
:101F9C0005D1484BDB69474A23F08053D3617B68FA
:101FAC00DB69002B00F08180424B5B6803F00C0373
:101FBC00082B61D07B68DB69022B46D13F4B00229A
:101FCC001A60FFF723FB386108E0FFF71FFB02469E
:101FDC003B69D31A022B01D9032367E0354B1B68ED
:101FEC0003F00073002BF0D17B681B6AB3F5803FC4
:101FFC0008D1304B5B6823F400327B689B682D4919
:10200C0013434B602B4B5B6823F474127B68196A87
:10201C007B685B6A0B43274913434B60274B0122B8
:10202C001A60FFF7F3FA386108E0FFF7EFFA02469F
:10203C003B69D31A022B01D9032337E01D4B1B68D4
:10204C0003F00073002BF0D02FE01C4B00221A6021
:10205C00FFF7DCFA386108E0FFF7D8FA02463B6973
:10206C00D31A022B01D9032320E0124B1B6803F077
:10207C000073002BF0D118E07B68DB69012B01D1D8
:10208C00012313E00B4B5B68FB60FB6803F48032AD
:10209C007B681B6A9A4206D1FB6803F470127B685A
:1020AC005B6A9A4201D0012300E0002318461837DE
:1020BC00BD4680BD001002400070004060004242EE
:1020CC0080B584B000AF786039607B68002B01D19B
:1020DC000123D0E06A4B1B6803F007033A689A426D
:1020EC0010D9674B1B6823F0070265493B68134303
:1020FC000B60634B1B6803F007033A689A4201D0EC
:10210C000123B8E07B681B6803F00203002B20D08E
:10211C007B681B6803F00403002B05D0594B5B68EC
:10212C00584A43F4E06353607B681B6803F0080370
:10213C00002B05D0534B5B68524A43F460535360F9
:10214C00504B5B6823F0F0027B689B684D4913434E
:10215C004B607B681B6803F00103002B40D07B684D
:10216C005B68012B07D1474B1B6803F40033002B32
:10217C0015D101237FE07B685B68022B07D1414BB3
:10218C001B6803F00073002B09D1012373E03D4B56
:10219C001B6803F00203002B01D101236BE0394BC8
:1021AC005B6823F003027B685B68364913434B6022
:1021BC00FFF72CFAF8600AE0FFF728FA0246FB68F2
:1021CC00D31A41F28832934201D9032353E02D4BA9
:1021DC005B6803F00C027B685B689B009A42EBD156
:1021EC00274B1B6803F007033A689A4210D2244B22
:1021FC001B6823F0070222493B6813430B60204BFA
:10220C001B6803F007033A689A4201D0012332E0BD
:10221C007B681B6803F00403002B08D0194B5B6828
:10222C0023F4E0627B68DB68164913434B607B68E0
:10223C001B6803F00803002B09D0124B5B6823F4D6
:10224C0060527B681B69DB000E4913434B6000F046
:10225C0021F802460B4B5B681B0903F00F030A497C
:10226C00CB5C22FA03F3094A1360094B1B6818462E
:10227C00FFF78AF9002318461037BD4680BD00BF12
:10228C000020024000100240E42B00082400002033
:10229C002800002090B48AB000AF2A4B3C1D0FCB15
:1022AC0084E80F0040F201233B800023FB610023F4
:1022BC00BB6100237B6200237B6100233B62224BCA
:1022CC005B68FB61FB6903F00C03042B02D0082B49
:1022DC0003D02DE01D4B3B622DE0FB699B0C03F002
:1022EC000F0307F12802134413F8243C7B61FB69AC
:1022FC0003F48033002B13D0134B5B685B0C03F09F
:10230C00010307F12802134413F8283CBB617B69D5
:10231C000E4A02FB03F2BB69B2FBF3F37B6204E0EF
:10232C007B690B4A02FB03F37B627B6A3B6202E034
:10233C00064B3B6200BF3B6A18462837BD4690BC33
:10234C00704700BFD42B00080010024000127A0026
:10235C0000093D0080B485B000AF78600A4B1B6863
:10236C000A4AA2FB03235B0A7A6802FB03F3FB60B5
:10237C0000BFFB685A1EFA60002BF9D100BF00BFEA
:10238C001437BD4680BC704724000020D34D62102A
:10239C0080B582B000AF78607B68002B01D101233F
:1023AC0041E07B6893F83D30DBB2002B06D17B68B3
:1023BC00002283F83C207868FFF73CF87B68022207
:1023CC0083F83D207B681A687B68043319461046F5
:1023DC0000F06AFA7B68012283F846207B680122B0
:1023EC0083F83E207B68012283F83F207B68012222
:1023FC0083F840207B68012283F841207B6801220E
:10240C0083F842207B68012283F843207B680122F9
:10241C0083F844207B68012283F845207B680122E5
:10242C0083F83D20002318460837BD4680BD0000C8
:10243C0080B485B000AF78607B6893F83D30DBB238
:10244C00012B01D0012335E07B68022283F83D206B
:10245C007B681B68DA687B681B6842F00102DA60F3
:10246C007B681B68164A934209D07B681B68B3F1E2
:10247C00804F04D07B681B68124A934211D17B6851
:10248C001B689B6803F00703FB60FB68062B10D0EE
:10249C007B681B681A687B681B6842F001021A6033
:1024AC0007E07B681B681A687B681B6842F00102B6
:1024BC001A60002318461437BD4680BC704700BF15
:1024CC00002C01400004004080B582B000AF786061
:1024DC007B681B681B6903F00203022B22D17B680B
:1024EC001B68DB6803F00203022B1BD17B681B68A3
:1024FC006FF002021A617B6801221A777B681B68F5
:10250C009B6903F00303002B03D0786800F0B1F94A
:10251C0005E0786800F0A4F9786800F0B3F97B68FE
:10252C0000221A777B681B681B6903F00403042BD9
:10253C0022D17B681B68DB6803F00403042B1BD1DE
:10254C007B681B686FF004021A617B6802221A77A1
:10255C007B681B689B6903F44073002B03D078687D
:10256C0000F087F905E0786800F07AF9786800F0F7
:10257C0089F97B6800221A777B681B681B6903F05A
:10258C000803082B22D17B681B68DB6803F0080367
:10259C00082B1BD17B681B686FF008021A617B68E3
:1025AC0004221A777B681B68DB6903F00303002B9A
:1025BC0003D0786800F05DF905E0786800F050F918
:1025CC00786800F05FF97B6800221A777B681B68DB
:1025DC001B6903F01003102B22D17B681B68DB688E
:1025EC0003F01003102B1BD17B681B686FF01002DB
:1025FC001A617B6808221A777B681B68DB6903F415
:10260C004073002B03D0786800F033F905E078684C
:10261C0000F026F9786800F035F97B6800221A770B
:10262C007B681B681B6903F00103012B0ED17B68CF
:10263C001B68DB6803F00103012B07D17B681B6867
:10264C006FF001021A617868FEF750FF7B681B6817
:10265C001B6903F08003802B0ED17B681B68DB6841
:10266C0003F08003802B07D17B681B686FF080021E
:10267C001A61786800F067FA7B681B681B6903F0C5
:10268C004003402B0ED17B681B68DB6803F04003D2
:10269C00402B07D17B681B686FF040021A61786889
:1026AC0000F0F9F87B681B681B6903F02003202BF2
:1026BC000ED17B681B68DB6803F02003202B07D14D
:1026CC007B681B686FF020021A61786800F032FAA0
:1026DC0000BF0837BD4680BD80B584B000AF7860C0
:1026EC0039607B6893F83C30012B01D10223B3E0B5
:1026FC007B68012283F83C207B68022283F83D2012
:10270C007B681B689B68FB60FB6823F07703FB60AE
:10271C00FB6823F47F43FB607B681B68FA689A6054
:10272C003B681B68B3F5005F3ED0B3F5005F00F269
:10273C008780B3F5805F00F08580B3F5805F7FD82C
:10274C00702B1AD0702B7BD8602B50D0602B77D885
:10275C00502B3CD0502B73D8402B58D0402B6FD8DB
:10276C00302B64D0302B6BD8202B60D0202B67D82B
:10277C00002B5CD0102B5AD062E07B6818683B6849
:10278C0099683B685A683B68DB6800F05CF97B68C9
:10279C001B689B68FB60FB6843F07703FB607B68FE
:1027AC001B68FA689A604EE07B6818683B68996809
:1027BC003B685A683B68DB6800F045F97B681B682E
:1027CC009A687B681B6842F480429A603BE07B68A5
:1027DC0018683B6859683B68DB681A4600F0BCF81F
:1027EC007B681B685021184600F013F92BE07B68BE
:1027FC0018683B6859683B68DB681A4600F0DAF8E1
:10280C007B681B686021184600F003F91BE07B68AD
:10281C0018683B6859683B68DB681A4600F09CF8FE
:10282C007B681B684021184600F0F3F80BE07B68CE
:10283C001A683B681B681946104600F0EAF802E07B
:10284C0000BF00E000BF7B68012283F83D207B685D
:10285C00002283F83C20002318461037BD4680BD6B
:10286C0080B483B000AF786000BF0C37BD4680BC2D
:10287C00704780B483B000AF786000BF0C37BD46A2
:10288C0080BC704780B483B000AF786000BF0C3759
:10289C00BD4680BC704780B483B000AF786000BF89
:1028AC000C37BD4680BC704780B485B000AF7860F3
:1028BC0039607B681B68FB607B68254A934207D0B4
:1028CC007B68B3F1804F03D07B68224A934208D1D6
:1028DC00FB6823F07003FB603B685B68FA6813438A
:1028EC00FB607B681A4A934207D07B68B3F1804F38
:1028FC0003D07B68174A934208D1FB6823F44073DA
:10290C00FB603B68DB68FA681343FB60FB6823F0F1
:10291C0080023B685B691343FB607B68FA681A6052
:10292C003B689A687B68DA623B681A687B689A62D3
:10293C007B68074A934203D13B681A697B681A6328
:10294C007B6801225A6100BF1437BD4680BC7047BA
:10295C00002C01400004004080B487B000AFF86048
:10296C00B9607A60FB681B6A7B61FB681B6A23F0A9
:10297C000102FB681A62FB689B693B613B6923F0AF
:10298C00F0033B617B681B013A6913433B617B6934
:10299C0023F00A037B617A69BB6813437B61FB6894
:1029AC003A699A61FB687A691A6200BF1C37BD46A6
:1029BC0080BC704780B487B000AFF860B9607A60B3
:1029CC00FB681B6A23F01002FB681A62FB689B69A8
:1029DC007B61FB681B6A3B617B6923F470437B6101
:1029EC007B681B037A6913437B613B6923F0A0036B
:1029FC003B61BB681B013A6913433B61FB687A6915
:102A0C009A61FB683A691A6200BF1C37BD4680BCEC
:102A1C00704780B485B000AF786039607B689B6884
:102A2C00FB60FB6823F07003FB603A68FB681343A0
:102A3C0043F00703FB607B68FA689A6000BF1437A9
:102A4C00BD4680BC704780B487B000AFF860B960F9
:102A5C007A603B60FB689B687B617B6923F47F43F6
:102A6C007B613B681A027B681A43BB6813437A6923
:102A7C0013437B61FB687A699A6000BF1C37BD46C3
:102A8C0080BC704780B485B000AF786039607B68DB
:102A9C0093F83C30012B01D1022341E07B680122E9
:102AAC0083F83C207B68022283F83D207B681B68FE
:102ABC005B68FB607B681B689B68BB60FB6823F0F2
:102ACC007003FB603B681B68FA681343FB607B6810
:102ADC001B68FA685A607B681B68144A934209D0D9
:102AEC007B681B68B3F1804F04D07B681B68104A6D
:102AFC0093420CD1BB6823F08003BB603B685B68DE
:102B0C00BA681343BB607B681B68BA689A607B68C1
:102B1C00012283F83D207B68002283F83C200023AF
:102B2C0018461437BD4680BC704700BF002C0140CE
:102B3C000004004080B483B000AF786000BF0C3755
:102B4C00BD4680BC704780B483B000AF786000BFD6
:102B5C000C37BD4680BC704770B500260C4D0D4C33
:102B6C00641BA410A64209D100F022F800260A4DDD
:102B7C000A4C641BA410A64205D170BD55F8043B49
:102B8C0098470136EEE755F8043B98470136F2E7D3
:102B9C00F42B0008F42B0008F42B0008F82B000889
:102BAC0003460244934200D1704703F8011BF9E736
:102BBC00F8B500BFF8BC08BC9E467047F8B500BF1E
:082BCC00F8BC08BC9E467047EE
:102BD40002030405060708090A0B0C0D0E0F10105A
:102BE40000000000000000000102030406070809B9
:042BF40031010008A3
:042BF8000D010008C3
:102BFC000A000000050000000200000003000000B5
:102C0C0005000000020000000200000005000000AA
:102C1C00030000000024F40010000000010000007C
:040000050800151DBD
:00000001FF
